:1000000006308A00DA2E0000FF00030E8301A100F3
:100010000A08A0008A010408A2007708A300780853
:10002000A4007908A5007A08A60003170D08031399
:10003000A70003170F080313A80003170C080313E6
:10004000A90003170E080313AA00831383128C3030
:100050008400801E2D288C1A4E2822088400230834
:10006000F7002408F8002508F9002608FA002708F8
:1000700003178D000313280803178F0003132908A3
:1000800003178C0003132A0803178E00031320089C
:100090008A00210E8300FF0E7F0E09008A110A12CA
:1000A0006028D3306D38EC34EE33BA060A006F3373
:1000B00066050001D31E25332C10D61E25330A00F9
:1000C0008C1E60281A08F500CB08031D6C284130EF
:1000D0007502CA00CB0ABA284B0B772875083D3C3D
:1000E00003197428C9147528C910CB0ABA287508D1
:1000F0000A3C031D9528831606134030831286069A
:10010000C91892284A0DFB00FB0DFB0DF830FB05CA
:1001100002304B027B07393E8400831380014A0B77
:1001200092284914CB01C910BA284B08013C031886
:10013000B82802304B02073C031CB828C918B7285E
:1001400075082C3C0318B7287508393C031CB728E0
:100150004A0DFB00FB0DFB0DF830FB0502304B0296
:100160007B07393E8400831375088000CB0ABA28C8
:10017000CB01C9108C128A110A122D280B08D2004B
:100180008B13831603178C170C14000000008312C6
:100190000313D21B8B1703170C087F39031914297B
:1001A0000313D20003170D080313D30003170F081E
:1001B0000313D40052080C1EDB28990053080317C0
:1001C0008D000313540803178F0003130B08D50089
:1001D0008B13831603178C170C1400000000831276
:1001E0000313D51B8B1703170C0D0E0D7F39031945
:1001F00014290313D20003170D080313D3000317A8
:100200000F080313D40052080C1E04299900530848
:1002100003178D000313540803178F008D0A031969
:100220008F0A0313BE2803170313080052308400FB
:1002300083130008031929290230F800F701F70B8E
:100240001F29F80B1E299730F700F70B2529800B83
:100250001C29080083168C16C03083128B04CB0136
:10026000C9108A110A12372FDA010408D9005A106E
:10027000831B5A14530EF038D500D507E23ED60042
:10028000323ED80053080F39D607D607D807E93EC3
:10029000D700D707D707520E0F39D707D807D70D82
:1002A000D80DD809D80D52080F39D807D50D073009
:1002B000D4000A30D807D703031C5A29D707D6031E
:1002C000031C5E29D607D503031C6229D507D40376
:1002D000031C6629543084008313073059055913D1
:1002E000840758300402031959170008F700031D4A
:1002F0008129591B8129591A8929D9198129203025
:100300008429D91559123030F70777080C1E862931
:100310009900840A591F71298A110A12472F61080E
:100320000319FF29E90065080319FF29E9070318E4
:10033000A0297F30E902031CFF290319FF29A42902
:100340008130E9070318FF296908F700F801F9016E
:10035000FA016208ED00ED176308EC006408EB0099
:100360001830E900EA016B1CCD296808FA07031C64
:10037000BF29F90A031DBF29F80A0319EA176708FC
:10038000F907031CC629F80A0319EA176608E300EF
:10039000E3176308F8070318EA17EA0DF80CF90CDD
:1003A000FA0CED0CEC0CEB0C0310E90BB22901304C
:1003B000F7070318FF29F81BE429ED0DFA0DF90DD5
:1003C000F80DF7030319FF29ED1FF529FA0A031D9C
:1003D000F529F90A031DF529F80A031DF529F80C7A
:1003E000F90CFA0CF70A0319FF296208EA006608FB
:1003F000EA06EA1FFD29F817032AF813032AF70172
:10040000F801F901FA0108008E30F7006608F800DB
:100410006508F900FA01F808031D182A7908F800A0
:10042000F9010830F702F808031D182AF701202AFD
:100430000310F81B1F2AF90DF80DF703182AF813FB
:10044000080080308318EA06EF01F0016608EE002C
:100450006A08EE0665080319112BED00F70069081C
:1004600003191A2BED020319B62A031C742A6A0811
:10047000F300F3176B08F2006C08F100F0010310B1
:10048000F30CF20CF10CF00CED0B3E2AEE1F4B2A94
:100490006F142E2B6F106D106F166830840083134D
:1004A000432B6F12EE1B5E2A6D1C692AF30CF20CB3
:1004B000F10CF00CF70A0319292B692AF31B6C2A9B
:1004C0000310F00DF10DF20DF30DF7030319292BB5
:1004D0005E2A6F17D62A6F136608EE00EE1F722A87
:1004E000F317222BF313222B6908ED00F7006508A0
:1004F000ED026608F300F3176708F2006808F100E0
:10050000F0010310F30CF20CF10CF00CED0B802A4F
:10051000EE1F8D2AEF142E2BEF106D10EF166C309E
:1005200084008313432BEF12EE1BA02A6D1CAB2A11
:10053000F30CF20CF10CF00CF70A0319292BAB2A7F
:10054000F31BAE2A0310F00DF10DF20DF30DF703BE
:100550000319292BA02AEF17D62AEF136A08EE00F9
:10056000EE1FB42AF317222BF313222B6A08F30091
:10057000F3176B08F2006C08F100EE1FC32AF313A7
:100580006F152E2B6F11F0016D10683084008313EE
:10059000432BEE1BEC2A6608EE006D1CD62AF30CEA
:1005A000F20CF10CF00CF70A0319292BF01FE72AC3
:1005B000F10A031DE72AF20A031DE72AF30A031DC5
:1005C000E72AF30CF20CF10CF70A0319292B6F1B25
:1005D0006B2AEF1BAD2A0B2B8030F306F31FF42A96
:1005E0002E2B6A08EE00012B6608EE00F308031DAF
:1005F000012BF208031D012BF108031D012BF7014C
:10060000222BF31B0B2B0310F00DF10DF20DF30D4C
:10061000F70B012B292BEE1F0F2BF317222BF313B4
:10062000222B6908F7006A08F3006B08F2006C08D7
:10063000F100222B6508F7006608F3006708F20056
:100640006808F1007308F8007208F9007108FA00F0
:10065000612BF701F801F901FA01612BF001F109B1
:10066000F209F309F009F00A031D3C2BF10A031DFE
:100670003C2BF20A0319F30A6F184A2AEF188C2A46
:100680006F19C22AF12A0008F107031C4D2BF20A48
:10069000031D4D2BF30A03196D1484030008F207A0
:1006A000031C552BF30A03196D1484030008801FE3
:1006B000803AF30703186D146F1A512AEF1A932A20
:1006C000C92A0800D901D801D7017F30D600DD0141
:1006D000DC01DB01DA015E14DE105E11E00152087C
:1006E0005304031D782BF701F801F901FA014B2D92
:1006F0006008E00A52078400831353188317000828
:10070000DF00DF080319092D5E1C982B5F08203CD1
:100710000319982B5E105F082B3C031D922BDE10F3
:10072000FF2C982B5F082D3C031D982BDE14FF2C0B
:100730005E18A22B5F082E3C031DA22B5E19A22B74
:100740005E15FF2C5E18FD2C5F082F3C0318FD2C56
:100750005F08393C031CFD2C3030DF025E1DC72CC6
:100760005908E4005808E3005708E2005608E10081
:10077000E801E7012030E6008230E5008F217A08A9
:10078000D9007908D8007808D7007708D600E601A4
:100790005F08E50004227A08E4007908E30078089D
:1007A000E2007708E1006408E8006308E7006208F7
:1007B000E6006108E5005908EC005808EB0057080E
:1007C000EA005608E90065080319A82CF100690839
:1007D0000319A82CF102031CF22B7F30F107031838
:1007E000A82CF82B8130F102031CA82C0319A82C8B
:1007F0007108F700F801F901FA01F0016608EF004D
:10080000EF176708EE006808ED001930F1006C087A
:10081000ED0203181B2C0130EE0203181B2CEF0213
:1008200003181B2CF00203181B2CF00AEF0AEE0A27
:100830006C08ED074D2C6B08EE020318362C0130C6
:10084000EF020318362CF0020318362CF00AEF0AD8
:100850006B08EE076C08ED07031C4D2CEE0A031D18
:100860004D2CEF0A031D4D2CF00A4D2C6A088038E0
:10087000EF0203184C2C0130F00203184C2CF00A44
:100880006A088038EF076B08EE07031C2A2CEF0A72
:10089000031D2A2CF00A2A2C7A14F10B502C5B2C05
:1008A0000310ED0DEE0DEF0DF00D0310FA0DF90D27
:1008B000F80DF20D072C721C632C0310F80CF90CC8
:1008C000FA0CF20C662CF7030319A82CF21B8F2CE0
:1008D0000310ED0DEE0DEF0DF00D6C08ED02031899
:1008E0007B2C0130EE0203187B2CEF0203187B2CCB
:1008F000F002031C9E2C6B08EE020318862C0130BC
:10090000EF020318862CF002031C9E2C6A08803824
:10091000EF0203188F2C0130F002031C9E2CFA0A00
:10092000031D9E2CF90A031D9E2CF80A031D9E2C04
:10093000F70A0319A82CF80CF90CFA0C6608F10058
:100940006A08F106F11FA62CF817AC2CF813AC2C92
:10095000F701F801F901FA0183105D08E8005C086D
:10096000E7005B08E6005A08E5007A08EC00790821
:10097000EB007808EA007708E90021227A08DD0018
:100980007908DC007808DB007708DA00FC2CE40149
:10099000E3012030E2008230E1005D08E8005C08FD
:1009A000E7005B08E6005A08E5008F217A08E400BA
:1009B0007908E3007808E2007708E100E6015F08C3
:1009C000E500042283106408E8006308E700620879
:1009D000E6006108E5007A08EC007908EB00780889
:1009E000EA007708E90021227A08DD007908DC00B6
:1009F0007808DB007708DA00FF2C5E1C092D600800
:100A0000E00A520784008313531883170008DF009D
:100A1000812BDE1C222DE401E3018030E2007F30D7
:100A2000E1005D08E8005C08E7005B08E6005A08A2
:100A3000E5008F217A08DD007908DC007808DB000A
:100A40007708DA00540855040319432DE008031908
:100A5000382DE00354088400831355188317600869
:100A600052078000840A530880000318800A432D2F
:100A700054088400831355188317840A5308800090
:100A80008403520880005A08F7005B08F8005C08ED
:100A9000F9005D08FA0008008318512D67308400C2
:100AA0008313F701F801F901FA01E701E801E9010F
:100AB000EA01660865046404630403198F2D20307D
:100AC000EB000310DF0DE00DE10DE20DE70DE80D89
:100AD000E90DEA0D66086A02031D782D65086902B2
:100AE000031D782D64086802031D782D63086702D2
:100AF000031C892D6308E7026408031C640FE802E5
:100B00006508031C650FE9026608031C660FEA020C
:100B10000314F70DF80DF90DFA0DEB0B612D6708B5
:100B20008000840A68088000840A69088000840ABA
:100B30006A08800008000408D7005608D900031985
:100B4000BA2D5508E4005408E3005308E2005208A7
:100B5000E100E801E7012030E6008230E5008F2166
:100B60007A08D5007908D4007808D3007708D20035
:100B7000D90BA12D5508E2005408E1005308E0000C
:100B80005208DF005F08B63CDF00FA016008E300AE
:100B9000E0170310E00CE10CE20CFA0CF90CF80C75
:100BA000F70CDF0BC92DE31FE02DF709F809F90950
:100BB000FA09F70A0319F80A0319F90A0319FA0AD4
:100BC0007A08D5007908D4007808D3007708D200D5
:100BD000D51FF72DD703D716D209D309D409D509C4
:100BE000D20A0319D30A0319D40A0319D50A3B30D0
:100BF000DE009A30DD00CA30DC00DB010A30D900AB
:100C000056080319D70A83145230840083135508F9
:100C1000E2005408E1005308E0005208DF005E08DB
:100C2000E6005D08E5005C08E4005B08E3004C2595
:100C30007808F708031D2F2E560A590203192F2E84
:100C400057080319312E0F3959020319292E031899
:100C5000652ED71B652E571B312E2030602E20307D
:100C6000D705D71E402ED7125608031DD703770885
:100C7000D7002D300C1E3A2E99005708F700D701E7
:100C800056085902031D4F2E7708D7002E300C1E30
:100C9000472E99005708F7002030D7050030303034
:100CA000D71E602ED7125608031DD7037708D7002A
:100CB0002D300C1E592E99005708F700D7013030FF
:100CC000F70777080C1E622E990083105E08E20079
:100CD0005D08E1005C08E0005B08DF00E601E5017B
:100CE000E4010A30E3004C257A08DE007908DD00D3
:100CF0007808DC007708DB00D90B032E08000B080E
:100D0000D3008B13831603178C170C1400000000FC
:100D100083120313D31B8B170318B72E03170C086A
:100D20007F390313D30003170D080313D4000317EF
:100D30000F080313D50053080C1E9C2E990054086D
:100D400003178D000313550803178F0003130B08B7
:100D5000D6008B13831603178C170C1400000000A9
:100D600083120313D61B8B17D20BB72ED72E031764
:100D70000C0D0E0D7F390313D30003170D08031359
:100D8000D40003170F080313D50053080C1EC62EFA
:100D90009900540803178D000313550803178F009B
:100DA0008D0A03198F0A03100313D20B7F2E8A11A9
:100DB0000A12AF2F03081F3983004910CA01CB0163
:100DC000C910713083168F0090010F080317871523
:100DD00010300313990000309A00A630980090302C
:100DE00083129800CD01CC01831603170908C0397E
:100DF000890003131F129F1200300317880083120B
:100E000087018801890183130313AB01AC018316A9
:100E100003170908C039890003131F129F120130FC
:100E200003178800831203131F179F1783169F173A
:100E300083121F14513003178D0000308F000313ED
:100E4000BE200030F8001F08C33978049F00CF018E
:100E5000CE014230F700F70B2B2F0000D001D1015B
:100E6000C830D20016218C1E332F1A082A299F144D
:100E70009F18382F83161E088312CE001E08CF003D
:100E8000103084004F08D3004E08D20034290A30B5
:100E90000C1E482F9900831686178312861B622F1B
:100EA000D008031D622F6F300C1E542F99006E3036
:100EB0000C1E582F99000A300C1E5C2F990001302F
:100EC000D000C12F831686178312861F722F500BF6
:100ED000722F573003178D0000308F000313BE2090
:100EE000D001C12F491CC12FD3013930D200D50107
:100EF000D40162237A08B4007908B3007808B200FC
:100F00007708B100D3014130D200D501D40162236A
:100F10007A08B8007908B7007808B6007708B500F5
:100F200053300C1E912F99003D300C1E952F9900C7
:100F3000893084003408D5003308D4003208D30047
:100F40003108D2000230D6009B255C3003178D009B
:100F500000308F00031004300313D2007F2E89303D
:100F600084003808D5003708D4003608D300350887
:100F7000D2000230D6009B250A300C1EBD2F9900EE
:0C0F800049101430D2001621372F6300F6
:04400E00C42FFF3F7D
:00000001FF
;PIC16F886
;CRC=9FB4  CREATED="27-¡.¾.-19 19:45"
